:100000000C942A000C9434000C9434000C943400AA
:100010000C9434000C9434000C9434000C94340090
:100020000C9434000C9434000C9434000C94340080
:100030000C9434000C9434000C9434000C94340070
:100040000C9434000C9434000C9434000C94340060
:100050000C94340011241FBECFE5D4E0DEBFCDBF29
:100060000E9436000C94E8010C9400008FEF8ABBCC
:1000700087BB81BB60E070E076C0EEEFE2BB81E160
:100080008BBB88BBAFE4B3EC1197F1F700C0000065
:100090002DEF22BB8BBB88BBAFE4B3EC1197F1F71C
:1000A00000C000004BEF42BB8BBB88BBAFE4B3EC9E
:1000B0001197F1F700C0000057EF52BB8BBB88BB14
:1000C0008FE493EC0197F1F700C0000042BB92E28D
:1000D0009BBB98BBAFE4B3EC1197F1F700C00000F5
:1000E00022BB34E43BBB38BBAFE4B3EC1197F1F770
:1000F00000C00000E2BB88E88BBB88BBEFE4F3ECF8
:100100003197F1F700C0000022BB8BBB88BBAFE486
:10011000B3EC1197F1F700C0000042BB8BBB88BB6A
:10012000EFE4F3EC3197F1F700C0000052BB8BBB5A
:1001300088BBAFE4B3EC1197F1F700C0000042BBFD
:100140003BBB38BBEFE4F3EC3197F1F700C00000A4
:1001500022BB9BBB98BB8FE493EC0197F1F700C0E7
:1001600000006F5F7F4F663071050CF486CF20E092
:1001700030E02CC087EF82BB9FE99BBB89EF88BB37
:10018000AFE4B3EC1197F1F700C000004BEF42BBB6
:100190009BBB88BBEFE4F3EC3197F1F700C00000A4
:1001A0004DEF42BB9BBB88BBAFE4B3EC1197F1F7BB
:1001B00000C000004EEF42BB9BBB88BBEFE4F3ECFA
:1001C0003197F1F700C000002F5F3F4F2630310517
:1001D0008CF220E030E052C04EEF42BB90E69BBB79
:1001E00086E088BBAFE4B3EC1197F1F700C00000E4
:1001F0005DEF52BB9BBB88BBEFE4F3EC3197F1F7AB
:1002000000C000006BEF62BB9BBB88BBAFE4B3ECEC
:100210001197F1F700C0000077EF72BB9BBB88BB62
:10022000EFE4F3EC3197F1F700C0000072BB9FE9F7
:100230009BBB89EF88BBAFE4B3EC1197F1F700C02B
:10024000000062BB9BBB88BBEFE4F3EC3197F1F796
:1002500000C0000052BB9BBB88BBAFE4B3EC11975E
:10026000F1F700C0000042BB9BBB88BBEFE4F3EC9E
:100270003197F1F700C000002F5F3F4F2630310566
:100280000CF4AACF20E030E072C07EEF72BB51E0E8
:100290005BBB87EA91E60197F1F700C000008DEFA4
:1002A00082BB90E29BBBA7EAB1E61197F1F700C0D1
:1002B00000001BBA9BEF92BB44E048BBE7EAF1E6C3
:1002C0003197F1F700C0000047EF42BBE0E8E8BB20
:1002D000A7EAB1E61197F1F700C0000092BB68E011
:1002E00068BBA7EAB1E61197F1F700C0000018BAA1
:1002F00082BBEBBBE7EAF1E63197F1F700C0000003
:1003000072BB6BBBA7EAB1E61197F1F700C0000022
:1003100082BB60E46BBBE7EAF1E63197F1F700C01E
:1003200000001BBA92BB62E068BBA7EAB1E6119776
:10033000F1F700C0000042BB40E148BBE7EAF1E64C
:100340003197F1F700C0000092BB58BBA7EAB1E6B5
:100350001197F1F700C0000018BA82BB4BBBE7EA67
:10036000F1E63197F1F700C000002F5F3F4F2630D4
:1003700031050CF48ACF80E090E025C02EEF22BB3F
:100380003FE93BBB29EF28BBF1E2FA95F1F700000A
:100390004DEF42BB59E05BBB40E948BB61E26A9567
:1003A000F1F700006BEF62BB5BBB48BBA1E2AA9513
:1003B000F1F7000047EF42BB3BBB28BBB1E2BA9567
:1003C000F1F7000001968031E7E29E07BCF252CEC1
:0403D000F894FFCFCF
:00000001FF
